:020000040800F2
:10000000F00D002001010008451B0008471B0008F7
:100010004B1B00084F1B0008531B0008000000008A
:10002000000000000000000000000000571B000856
:10003000591B0008000000005B1B00085D1B000846
:100040001B0100081B0100081B0100081B01000820
:100050001B0100081B0100085F1B0008991B00081A
:10006000D31B00081B0100081B0100081B0100082E
:100070001B0100081B0100081B0100081B010008F0
:100080001B0100081B0100081B0100081B010008E0
:100090001B0100081B0100081B0100081B010008D0
:1000A0001B0100081B0100081B0100081B010008C0
:1000B0001B0100081B0100081B0100081B010008B0
:1000C0001B0100081B0100081B0100081B010008A0
:1000D0001B0100081B0100081B0100081B01000890
:1000E0001B0100081B0100081B010008DFF80CD0F1
:1000F00002F0AAF900480047191A0008F00D002084
:100100000648804706480047FEE7FEE7FEE7FEE7B1
:10011000FEE7FEE7FEE7FEE7FEE7FEE70302000874
:10012000ED0000080CB50020019000906C480068BC
:1001300040F480306A49086000BF6948006800F4F4
:10014000003000900198401C0190009818B9019867
:10015000B0F5A06FF1D16248006800F4003010B132
:100160000120009001E0002000900098012843D178
:100170005C48006840F010005A4908600846006872
:1001800020F0030008600846006840F002000860A4
:1001900053484068524948600846406848600846ED
:1001A000406840F4806048600846406820F47C1055
:1001B00048600846406840F4E81048600846006817
:1001C00040F08070086000BF4548006800F0007093
:1001D0000028F9D04248406820F0030040494860B8
:1001E0000846406840F00200486000BF3C48406854
:1001F00000F00C000828F9D10CBD10B5FFF792FFF4
:1002000010BD10B53648006840F001003449086060
:10021000084640683449084031494860084600684B
:10022000324908402E4908600846006820F48020C2
:1002300008600846406820F4FE0048604FF41F0044
:100240008860FFF7DAFF4FF000602949086010BDB1
:1002500010B5002100200022214B5B6803F00C0147
:1002600021B1042906D0082928D107E0214B224CCE
:10027000236027E01F4B204C236023E0184B5B6872
:1002800003F47010164B5B6803F48032022303EB17
:10029000904022B9194B4343174C23600DE0104B9B
:1002A0005B6803F4003323B1144B4343124C2360C7
:1002B00003E0104B4343104C236003E00D4B0E4C06
:1002C000236000BF00BF064B5B68C3F303130C4CF5
:1002D000E15C094B1B68CB40074C236010BD00005C
:1002E00000100240002002400000FFF8FFFFF6FE71
:1002F00008ED00E000127A000000002000093D0037
:100300000400002031490143314A1160704770B543
:10031000002100230F22C47804B32D4C246804F478
:10032000E064C4F5E064210AC1F10403CA404478E2
:1003300004FA03F18478144021430901254C06781E
:10034000A155047804F01F050124AC4005786D1117
:10035000AD0005F1E025C5F8004109E0047804F09E
:100360001F050124AC401C4D0678761145F8264047
:1003700070BD1A4A0A400243154B1B1F1A60704792
:1003800039B1134A121D12680243114B1B1D1A602A
:1003900006E00F4A121D126882430D4B1B1D1A60A6
:1003A0007047042808D14FF0E021096941F00401A9
:1003B0004FF0E022116107E04FF0E021096921F0E0
:1003C00004014FF0E0221161704700000000FA05BF
:1003D0000CED00E000E400E080E100E080FFFF1FA2
:1003E000002044490860091D0860091D0860091DB6
:1003F000086041483F4914310860704700213D4979
:100400008279002A3AD00A46126803689A430B465A
:100410001A600A1D126803689A430B1D1A6002795C
:1004200011440A6803681A430A60324A08321268A3
:1004300003689A432F4B08331A601A1D1268036829
:100440009A432C4B0C331A604279102A0ED11A1F92
:10045000126803681A43274B08331A601A1D126882
:1004600003681A43234B0C331A600DE0214942798B
:1004700011440A6803681A430A6005E002791144CE
:100480000A6803689A430A6070470021016001719D
:100490000C214171002181717047164910310968A2
:1004A0000143144A10321160704701460020114A7E
:1004B000143212680A400AB1012000E0002070479F
:1004C0000C49143108607047014600200022094B96
:1004D0001B6803EA0102074B14331B680B4013B17E
:1004E0000AB1012000E00020704702491431086081
:1004F0007047000000040140FFFF0F0010B50446E4
:10050000CC48844208D10121042000F02DFB0021B9
:10051000042000F029FB46E0C748844208D10121AD
:10052000082000F021FB0021082000F01DFB3AE02C
:10053000C248844208D10121102000F015FB00219F
:10054000102000F011FB2EE0BD48844208D10121AB
:10055000202000F009FB0021202000F005FB22E014
:10056000B848844208D10121402000F0FDFA002162
:10057000402000F0F9FA16E0B348844208D1012186
:10058000802000F0F1FA0021802000F0EDFA0AE06E
:10059000AE48844207D10121801500F0E5FA002120
:1005A000A01500F0E1FA10BD10B50121084600F0D9
:1005B000DBFA0021012000F0D7FA10BD2DE9F0414F
:1005C000024600250026002000230024002791F881
:1005D00003C00CF00F0591F803C00CF0100CBCF137
:1005E000000F03D091F802C04CEA050591F800C055
:1005F000BCF1000F31D0146800202BE04FF0010C4B
:100600000CFA00F3B1F800C00CEA03069E4220D1B8
:1006100083004FF00F0C0CFA03F7BC4305FA03FC00
:100620004CEA040491F803C0BCF1280F06D14FF046
:10063000010C0CFA00FCC2F814C00AE091F803C0E7
:10064000BCF1480F05D14FF0010C0CFA00FCC2F8C8
:1006500010C0401C0828D1D31460B1F800C0BCF110
:10066000FF0F34DD546800202EE000F1080C4FF03D
:10067000010808FA0CF3B1F800C00CEA03069E4228
:1006800021D183004FF00F0C0CFA03F7BC4305FA9D
:1006900003FC4CEA040491F803C0BCF1280F05D117
:1006A00000F1080C08FA0CF8C2F8148091F803C0A5
:1006B000BCF1480F07D100F1080C4FF0010808FA0F
:1006C0000CF8C2F81080401C0828CED35460BDE856
:1006D000F0814FF6FF710180022181700421C17009
:1006E00070470246002093680B400BB1012000E0E8
:1006F000002070470146886880B27047024600209B
:10070000D3680B400BB1012000E000207047014688
:10071000C86880B2704701617047416170470AB193
:10072000016100E041617047C16070474FF4803261
:100730000A438261816182618269826970470246EF
:100740000020434B18684FF68073184040EA0210AF
:1007500008433F4B186070473E49C8617047F0B589
:100760000A46002300240021002500F00046B6F1CF
:10077000004F02D1364EF16901E0354E7168C0F389
:10078000034583B200F44016B6F5401F08D121F0AE
:1007900070612F4E766826F070662D4F7E6012E0F5
:1007A00000F48016B6F5801F06D1032606FA05F47C
:1007B000A14341F0706106E0460D360103FA06F6EA
:1007C000B14341F0706122B1460D360103FA06F6DD
:1007D000314300F00046B6F1004F02D11C4EF161EA
:1007E00001E01B4E7160F0BD30B500228B071C0F7D
:1007F0000F2303FA04F2164B08338C1053F82430FD
:100800009343134C08348D1044F8253023468C1044
:1008100053F824308C07240F00FA04F423430C4CC3
:1008200008348D1044F8253030BD0A49DC310860A9
:100830007047000000080140000C0140001001401A
:100840000014014000180140001C0140002001403C
:100850000000014000002042DF48006840F0010035
:10086000DD49086008464068DC490840DA494860CC
:1008700008460068DA490840D74908600846006819
:1008800020F4802008600846406820F4FE0048609C
:100890004FF41F0088607047CF49096821F4803108
:1008A000CD4A11601146096821F480211160B0F52C
:1008B000803F03D0B0F5802F0ED106E0C64909680D
:1008C00041F48031C44A116007E0C349096841F42A
:1008D000A021C14A116000E000BF00BF704710B501
:1008E00001460022002300204A11012A02D1BA4CFD
:1008F000236806E0022A02D1B74C236A01E0B64C15
:10090000636A01F01F02012494401C400CB10120D5
:1009100000E0002010BD38B5002000900024002524
:1009200000BF3120FFF7DBFF05460098401C009018
:100930000098B0F5A06F01D0002DF2D03120FFF764
:10094000CEFF08B1012400E00024204638BD014656
:100950000020A14A106820F0F80040EAC1001060B1
:100960007047A04908607047024600209A4B5868BB
:1009700020F47C1042EA01031843974B58607047FB
:1009800098490866704701460020934A506820F055
:1009900003000843506070478F48406800F00C0027
:1009A0007047014600208C4A506820F0F000084350
:1009B0005060704701460020874A506820F4E0608C
:1009C00008435060704701460020834A506820F475
:1009D000605040EAC1005060704729B17E4A527AA7
:1009E00002437D4B5A7204E07B4A527A82437A4B2F
:1009F0005A7270477B49D831086070470146002021
:100A0000754A506820F44040084350607047002108
:100A1000714A20321170704A82F82010012802D0E9
:100A200004280AD104E001216B4A2032117005E04C
:100A30000521694A2032117000E000BF00BF7047F5
:100A40006949086070476449096A0143624A116252
:100A50007047654944390860704730B5002100226D
:100A6000002400235C4D6D6805F00C0121B10429C0
:100A700005D0082923D105E05C4D056022E05B4DDF
:100A800005601FE0544D6D6805F47012524D6D689D
:100A900005F48034022505EB92421CB9544D5543B0
:100AA00005600BE04C4D6D6805F400351DB1504DEF
:100AB0005543056002E04D4D5543056002E04B4D46
:100AC000056000BF00BF444D6D6805F0F0010909E5
:100AD000484D6B5C0568DD4045603F4D6D6805F431
:100AE000E061090A434D6B5C4568DD4085603A4D25
:100AF0006D6805F46051C90A3E4D6B5C4568DD4088
:100B0000C560354D6D6805F44041890B3A4D6B5C0D
:100B1000C568B5FBF3F5056130BD29B12E4A5269B0
:100B200002432D4B5A6104E02B4A526982432A4BFF
:100B30005A61704729B1284A92690243264B9A614B
:100B400004E0254A92698243234B9A61704729B198
:100B5000214AD2690243204BDA6104E01E4AD2697D
:100B600082431D4BDA61704729B11B4AD2680243A8
:100B7000194BDA6004E0184AD2688243164BDA60F7
:100B8000704729B1144A12690243134B1A6104E0F9
:100B9000114A12698243104B1A6170471249403959
:100BA000086070470F49C86470470B49C8717047A7
:100BB0000948406A40F08070074948627047014622
:100BC0000020054A92680A400AB1012000E0002096
:100BD0007047014988727047001002400000FFF81A
:100BE000FFFFF6FE000042428004424200127A00FB
:100BF00000093D00140000202400002010B5044628
:100C0000FE48844208D10121C014FFF7ADFF002146
:100C1000E014FFF7A9FFC4E0B4F1804F08D101212F
:100C20000846FFF7AEFF00210120FFF7AAFFB8E05A
:100C3000F348844208D101210220FFF7A2FF0021DE
:100C40000220FFF79EFFACE0EE48844208D101216C
:100C50000420FFF796FF00210420FFF792FFA0E099
:100C6000E948844208D101210820FFF78AFF0021CA
:100C70000820FFF786FF94E0E448844208D1012170
:100C80001020FFF77EFF00211020FFF77AFF88E099
:100C9000DF48844208D101212020FFF772FF0021A4
:100CA0002020FFF76EFF7CE0DA48844208D1012162
:100CB0004014FFF759FF00216014FFF755FF70E063
:100CC000D548844209D10121C804FFF74DFF002116
:100CD0004FF40020FFF748FF63E0D048844209D179
:100CE00001210805FFF740FF00214FF48010FFF7B6
:100CF0003BFF56E0CA48844209D101214805FFF76D
:100D000033FF00214FF40010FFF72EFF49E0C548E4
:100D1000844208D101214020FFF733FF0021402009
:100D2000FFF72FFF3DE0C048844208D10121802019
:100D3000FFF727FF00218020FFF723FF31E0BB48AA
:100D4000844208D101218015FFF71BFF0021A01567
:100D5000FFF717FF25E0B648844209D101210804B6
:100D6000FFF702FF00214FF48030FFF7FDFE18E08F
:100D7000B048844209D101214804FFF7F5FE002163
:100D80004FF40030FFF7F0FE0BE0AB48844208D18F
:100D900001218804FFF7E8FE00214FF48020FFF7CF
:100DA000E3FE10BD00220288944B98420ED0994B6E
:100DB00098420BD0B0F1804F08D0914B984205D0AB
:100DC000904B984202D0904B984204D14FF68F73CB
:100DD0001A404B881A438D4B984207D08C4B98424F
:100DE00004D04FF6FF431A40CB881A4302808B8809
:100DF00083850B880385814B98420BD0854B9842A5
:100E000008D08B4B984205D08A4B984202D08A4B2F
:100E1000984201D10B7A038601238382704770B513
:100E2000002400220023058C4FF6FE763540058411
:100E3000028C8388048B4FF68F752C40B51E2C4096
:100E40000D882C43751E2A400D892A434D882A435C
:100E50006A4DA8420BD06F4DA84208D0744DA842ED
:100E600005D0744DA84202D0734DA84213D14FF65D
:100E7000F7752A404D892A434FF6FB752A408D8825
:100E80002A434FF6FF652B404FF6FF552B408D89C7
:100E90002B43CD892B4383800483CD8885860284B0
:100EA00070BD70B5002400220023058C4FF6EF764C
:100EB00035400584028C8388048B48F6FF752C40EE
:100EC0004FF6FF452C400D884FF6FF7606EA0525C4
:100ED0002C434FF6DF752A400D8906EA05152A4393
:100EE0004D8806EA05152A43444DA84202D0494DD3
:100EF000A8421DD14FF67F752A404D894FF6FF76E7
:100F000006EA05152A434FF6BF752A408D8806EA82
:100F100005152A434FF6FF352B404FF2FF752B4046
:100F20008D8906EA85052B43CD8906EA85052B4385
:100F300083800483CD880587028470BD70B500244A
:100F400000220023058C4FF6FF6635400584028C95
:100F50008388848B4FF68F752C404FF6FC752C40A0
:100F60000D882C434FF6FF552A400D894FF6FF762A
:100F700006EA05252A434D8806EA05252A431F4D22
:100F8000A84202D0234DA8421DD14FF2FF752A403E
:100F90004D894FF6FF7606EA05252A434FF6FF35C1
:100FA0002A408D8806EA05252A434EF6FF752B4018
:100FB0004DF6FF752B408D8906EA05152B43CD892B
:100FC00006EA05152B4383808483CD8885870284B8
:100FD00070BD70B5002200230024058C4EF6FF760C
:100FE00035400584038C8488828B48F6FF752A403F
:100FF0004FF6FF452A400D8820E00000002C0140FC
:101000000004004000080040000C004000100040B8
:101010000014004000340140004C014000500140E9
:101020000054014000180040001C00400020004017
:101030000040014000440140004801404FF6FF7667
:1010400006EA05252A434DF6FF752B400D8906EA71
:1010500005352B434D8806EA05352B43FA4DA8424A
:1010600002D0FA4DA84208D14BF6FF752C408D896D
:101070004FF6FF7606EA85152C4384808283CD885F
:10108000A0F84050038470BD828B4FF2FF331A40AA
:101090008283828B4FF6FF7303EA01231A43828314
:1010A0007047F0B50C461546002200210026078C3B
:1010B0004EF6FF7C07EA0C070784828B018C4FF603
:1010C000FF7707EA043640F6FF473A404FF6FF77CE
:1010D00007EA05273A434FF6FF7707EA03373A4313
:1010E000D94FB8420ED0D94FB8420BD0B0F1804F93
:1010F00008D0D74FB84205D0D64FB84202D0D64F0D
:10110000B84206D14DF6FF77394046F4805739434F
:1011100005E047F6FF57394044F48057394382834E
:101120000184F0BD828B4FF6F3731A408283828B69
:101130000A4382837047F0B50C4615460022002111
:101140000026078C4FF6FF6C07EA0C070784828B9A
:10115000018C4FF6FF7707EA04264FF60C773A40EA
:101160004FF6FF7707EA03172F433A43B64FB842CB
:101170000ED0B64FB8420BD0B0F1804F08D0B44F6C
:10118000B84205D0B34FB84202D0B34FB84206D1EF
:101190004FF6FF57394046F48077394305E04FF268
:1011A000FF57394044F48077394382830184F0BD8E
:1011B000028B4FF2FF331A400283028B4FF6FF730C
:1011C00003EA01231A4302837047F0B50C46154623
:1011D000002200210026078C4FF6EF7C07EA0C075F
:1011E0000784028B018C4FF6FF7707EA041640F65E
:1011F000FF473A404FF6FF7707EA03373A434FF687
:10120000FF7707EA05273A438F4FB8420ED08F4F3A
:10121000B8420BD0B0F1804F08D08D4FB84205D006
:101220008C4FB84202D08C4FB84206D14FF6DF77D0
:10123000394046F01007394305E04FF65F773940F3
:1012400044F01007394302830184F0BD028B4FF64E
:10125000F3731A400283028B0A4302837047F0B58E
:101260000C46154600220021068C4FF6FE773E40C4
:101270000684028B018C4FF60C7632407E1C06EA07
:1012800003162E433243704EB0420ED06F4EB04222
:101290000BD0B0F1804F08D06D4EB04205D06D4EEE
:1012A000B04202D06C4EB04206D14FF6FD763140CE
:1012B00044F00106314305E04FF6F576314044F045
:1012C0000106314302830184F0BD70B505460C462A
:1012D0005D4885420ED05D4885420BD0B5F1804F08
:1012E00008D05B48854205D05A48854202D05A480A
:1012F000854200D100E000BF208850B92389A28830
:1013000061882846FFF7ABFFE1882846FFF79EFF7C
:1013100025E0208804280AD12389A28861882846EC
:10132000FFF753FFE1882846FFF742FF17E02088C8
:1013300008280AD12389A28861882846FFF7FBFE86
:10134000E1882846FFF7EEFE09E02389A28861883C
:101350002846FFF7A6FEE1882846FFF795FE70BDF8
:101360002DE9F04105460C4600260127608808B9A2
:10137000022600E00026A088012801D1022700E013
:1013800001272088A0B92389A28861882846FFF711
:1013900066FFE1882846FFF759FF23893A46314620
:1013A0002846FFF712FFE1882846FFF701FF13E008
:1013B0002389A28861882846FFF707FFE18828462D
:1013C000FFF7F6FE23893A4631462846FFF747FFE6
:1013D000E1882846FFF73AFFBDE8F0810A884B888C
:1013E0001A438B881A43CB881A430B891A434B89BB
:1013F0001A438B891A43A0F8442070474FF6FF71B7
:10140000818000210180C1804180017270470021EC
:10141000018041808180C180018141818181C181C0
:101420007047002101804180012181800021C1801D
:10143000018170470021018041808180C18001814C
:101440004181818170470000002C0140003401403F
:101450000004004000080040000C004021B1028858
:1014600042F00102028004E002884FF6FE731A4047
:101470000280704731B1B0F8442042F40042A0F835
:10148000442005E0B0F84420C2F30E02A0F8442046
:1014900070471AB183890B43838102E083898B43B0
:1014A000838170478182704741EA0203A0F8483087
:1014B00070471AB183890B43838102E083898B4390
:1014C0008381704701894FF6F8721140018170479E
:1014D0000A46002101894FF68F731940114301819B
:1014E000704730B504460D4629462046FFF7F0FF09
:1014F000208940F00700208130BD2DE9F0410446ED
:101500000D4616461F46602D06D13B460122314648
:101510002046FFF75AFE05E03B46012231462046B1
:10152000FFF79DFE29462046FFF7D2FF208940F0B5
:1015300007002081BDE8F08130B50C46002101890B
:10154000C9B24FF6FF7505EA032515432543294324
:10155000018130BD2DE9F04105460E4617469846FB
:10156000002443463A4631462846FFF7E5FF2C89DA
:101570004FF6F870044044F007044FF68F700440B3
:1015800044F070042C81BDE8F081F0B504460D46AE
:1015900016461F463B46324629462046FFF7CCFFFB
:1015A000208940F480402081F0BD0185828270470F
:1015B0000A46002101884FF68F73194011430180BC
:1015C0007047F0B50C4615461E4600210022002348
:1015D0000189028B038C4FF6F877394021434FF68F
:1015E000FC473A4040F201173A434FF6DD773B4063
:1015F0004FF6FF7707EA06172F433B43018102832B
:101600000384F0BD0A460021018B4FF68F73194009
:101610001143018370470A460021018B48F6FF738E
:1016200019404FF6FF7303EA022319430183704701
:101630000A460021818B4FF68F7319401143818335
:1016400070470A460021818B48F6FF7319404FF618
:10165000FF7303EA022319438183704721B1028893
:1016600042F08002028004E002884FF67F731A4045
:101670000280704721B1828842F00402828004E037
:1016800082884FF6FB731A408280704721B18288AE
:1016900042F00802828004E082884FF6F7731A4015
:1016A0008280704721B1828842F00102828004E08A
:1016B00082884FF6FE731A40828070470A460021E6
:1016C000018B4FF6F77319401143018370470A46A7
:1016D0000021018B4FF2FF7319404FF6FF7303EAAD
:1016E00002231943018370470A460021818B4FF67C
:1016F000F77319401143818370470A460021818B9B
:101700004FF2FF7319404FF6FF7303EA02231943A8
:10171000818370470A460021018B4FF6FB73194005
:101720001143018370470A460021018B4FF6FF33B6
:1017300019404FF6FF7303EA0223194301837047F0
:101740000A460021818B4FF6FB73194011438183B8
:1017500070470A460021818B4FF6FF3319404FF640
:10176000FF7303EA02231943818370470A4600216D
:10177000018B4FF67F7319401143018370470A466E
:101780000021018BC1F30E014FF6FF7303EA022320
:101790001943018370470A460021818B4FF67F73FE
:1017A00019401143818370470A460021818BC1F3A0
:1017B0000E014FF6FF7303EA02231943818370473A
:1017C0000A460021018C4FF6FD7319401143018434
:1017D00070470A460021018C4FF6F77319401143F8
:1017E000018470470A460021018C4FF6DF731940CF
:1017F0004FF6FF7303EA02131943018470470A4648
:101800000021018C4FF67F7319404FF6FF7303EAF6
:1018100002131943018470470A460021018C4FF6D8
:10182000FF5319404FF6FF7303EA02231943018463
:1018300070470A460021018C4FF2FF7319404FF6A2
:10184000FF7303EA02231943018470470A4600210B
:10185000018C4DF6FF7319404FF6FF7303EA023314
:1018600019430184704730B5002301248C40A3B292
:10187000048C9C430484048C02FA01F5ADB22C4321
:10188000048430BD30B5002304248C40A3B2048C02
:101890009C430484048C02FA01F5ADB22C43048409
:1018A00030BD70B5034600200024184618300125CD
:1018B0008D40ACB21D8CA5431D8409B1082909D106
:1018C00000EB6100056825F07005056005681543AB
:1018D00005600EE00D1FC5F34E052844056825F48C
:1018E000E045056005684FF6FF7606EA02263543B7
:1018F000056070BD21B1028842F00202028004E05E
:1019000002884FF6FD731A400280704721B10288A9
:1019100042F00402028004E002884FF6FB731A4092
:101920000280704721B1828842F08002828004E008
:1019300082884FF67F731A408280704702884FF684
:10194000F7731A40028002880A4302807047828837
:101950004FF68F731A40828082880A4382807047D4
:1019600002894FF6F8731A40028102890A43028104
:10197000704702894FF67F731A40028102890A4339
:1019800002817047818470478185704781867047E6
:101990000187704781877047A0F840107047028820
:1019A0004FF6FF431A40028002880A4302807047C4
:1019B0000146888E70470146088F70470146888F20
:1019C00070470146B1F8400070470146888C704767
:1019D0000146088D704702460020138A0B400BB168
:1019E000012000E000207047CA430282704730B5F2
:1019F0000246002000230024158A05EA0103958988
:101A000005EA010413B10CB1012000E0002030BD53
:101A1000CA4302827047000008B500F085F900F063
:101A200024F900F04BFA00F0B3FA00F049FC00F0A2
:101A30001EFB72E000F042FA00F0AAFA00F040FC4F
:101A400000F015FB202467E000F011FB0022114696
:101A5000104600F0C9FB01220021122000F0C4FB57
:101A600002220021242000F0BFFB032200213620A7
:101A700000F0BAFB04220021482000F0B5FB05224B
:101A800000215A2000F0B0FB062200216C2000F05B
:101A9000ABFB22A20321002000F08BFB23A2062136
:101AA000002000F086FB23A206213F2000F081FBEE
:101AB00022460621302000F0FAFA601CC4B27E2CC7
:101AC00000DD2024102003232246062100906720F9
:101AD00000F02DFB4FF4FA5000F02DFA00F0C7FA99
:101AE0004FF4FA5000F027FA14480823802200210E
:101AF0000090084600F0A9FB4FF4FA5000F01BFAE2
:101B00000F480823802200210090084600F09DFB2A
:101B10004FF4FA5000F00FFA96E78BE7312E332797
:101B2000204F4C45442054455354000041534349F1
:101B3000493A0000434F44453A0000002800002085
:101B400028040020704700BFFEE700BFFEE700BF8B
:101B5000FEE700BFFEE7704770477047704708B563
:101B60000120FEF7B1FCB0B12E480068401C2D49A1
:101B7000086008460068B42801DD002008602020C5
:101B800003230090274805210268502000F0CFFA77
:101B90000120FEF7AAFC08BD08B50220FEF794FC60
:101BA000B0B120480068401E1E4908600846006821
:101BB000002801DAB420086020200323009019488F
:101BC00005210268502000F0B2FA0220FEF78DFCD9
:101BD00008BD10B50420FEF777FC10B3114800686B
:101BE00000F0CEF840F6B83000F0A5F904210E4818
:101BF000FEF791FD40F6B83000F09DF904210A4847
:101C0000FEF78BFD08210848FEF785FD4FF47A703A
:101C100000F091F908210448FEF77FFD0220FEF74D
:101C200064FC10BD28080020000C014008B54FF4EA
:101C3000C060FEF767FB06208DF8000001208DF8DC
:101C400001008DF802008DF803006846FEF75FFB87
:101C500007208DF800006846FEF759FB08208DF834
:101C600000006846FEF753FB08BD0EB501210520B4
:101C7000FEF760FFFFF7DAFF0120ADF8080048200B
:101C80008DF80B0002A92748FEF798FC00210846B2
:101C9000FEF7AAFD0120009000208DF804000C2022
:101CA0008DF8050001208DF806006846FEF7A6FBBA
:101CB0000220ADF8080048208DF80B0002A9194851
:101CC000FEF77CFC01210020FEF78EFD0220009033
:101CD00000208DF804000C208DF8050001208DF8FF
:101CE00006006846FEF78AFB0420ADF8080048208D
:101CF0008DF80B0002A90B48FEF760FC01210020C3
:101D0000FEF772FD0220009000208DF804000C20E8
:101D10008DF8050001208DF806006846FEF76EFB81
:101D20000EBD00000008014008B501210820FEF7A3
:101D300001FF0420ADF8000010208DF803000320FF
:101D40008DF8020069460D48FEF738FC0820ADF812
:101D5000000069460948FEF731FC1020ADF800008C
:101D600069460648FEF72AFC04210448FEF7D5FC24
:101D700008210248FEF7D1FC08BD7047000C014065
:101D800010B58CB0044601210420FEF7D3FE4FF4B9
:101D90008070ADF82C0018208DF82F0003208DF8EE
:101DA0002E000BA94248FEF709FC01210820FEF78E
:101DB000C1FE4FF40050ADF82C0018208DF82F0014
:101DC00003208DF82E000BA93A48FEF7F7FB0121FE
:101DD0000820FEF7AFFE4FF48050ADF82C0018201D
:101DE0008DF82F0003208DF82E000BA93148FEF747
:101DF000E5FB4FF480512F48FEF78FFC0121C8020C
:101E0000FEF798FE40F20770ADF8240040F21F3054
:101E1000ADF820000020ADF82600ADF822008DF8C6
:101E2000280008A92448FEF7BDFF6020ADF8100087
:101E30000120ADF812000420ADF8140004F12D00CB
:101E400080B2ADF816000020ADF81800ADF81A0009
:101E50004FF48070ADF81C000020ADF81E0004A9FE
:101E60001548FEF7DCFF08211348FFF727FC002088
:101E7000ADF80000ADF80200ADF80400ADF80600C2
:101E8000ADF808004FF40050ADF80A004000ADF87E
:101E90000C0069460848FFF7A1FA01210648FFF740
:101EA000DDFA01210448FFF7E5FA0CB010BD00008F
:101EB00000080140000C0140002C014010B56FF0FB
:101EC0000400FEF76EFA2E4800682E49B0FBF1F0D0
:101ED0002D4908700846007800EB4001C1EBC010A6
:101EE0004FF6FF7101EAC0002849088010BD014685
:101EF000254A12784A434FF0E0235A6100229A6142
:101F00001A46126942F001021A6100BF4FF0E02246
:101F1000106900F001021AB100F48032002AF5D0F5
:101F20004FF0E022126922F001024FF0E0231A6123
:101F300000229A6170470146144A12884A434FF0C2
:101F4000E0235A6100229A611A46126942F00102A6
:101F50001A6100BF4FF0E022106900F001021AB1CF
:101F600000F48032002AF5D04FF0E022126922F00E
:101F700001024FF0E0231A6100229A6170470000CD
:101F80000000002000127A002C0800202E080020FB
:101F900010B54FF4A060FEF7B5F910BD70B504465A
:101FA0000E4626B10221FE48FEF7B5FB03E00221F2
:101FB000FB48FEF7B2FB1021FA48FEF7AEFB002506
:101FC00017E02021F748FEF7A8FB04F0800020B1BD
:101FD0008021F448FEF79FFB03E08021F148FEF7E3
:101FE0009CFB2021EF48FEF796FB6006040E681C60
:101FF000C5B2082DE5DB1021EA48FEF78CFB022173
:10200000E748FEF788FB70BD70B504460D4605F144
:10201000B001C8B20021FFF7C1FF102141EA14103E
:102020000021FFF7BBFF04F00F0141F00100002188
:10203000FFF7B4FF70BD10B500218D20FFF7AEFF94
:1020400000211420FFF7AAFF0021AF20FFF7A6FF11
:1020500010BD10B500218D20FFF7A0FF002110203A
:10206000FFF79CFF0021AE20FFF798FF10BD70B571
:10207000002419E004F1B001C8B20021FFF78EFF7F
:1020800000210846FFF78AFF00211020FFF786FF96
:10209000002505E001210020FFF780FF681CC5B284
:1020A000802DF7DB601CC4B2082CE3DB70BD2DE98A
:1020B000F04107460E46904600250024A8F1200076
:1020C000C5B27F2F02DD0027B01CC6B231463846AC
:1020D000FFF79AFF002408E004EB0511B24A505CB8
:1020E0000121FFF75BFF601CC4B2082CF4DB701CFD
:1020F000C1B23846FFF788FF002409E004EB051160
:102100000831A94A505C0121FFF748FF601CC4B2A6
:10211000082CF3DBBDE8F08110B50246012000E099
:1021200050430B1EA1F10104E1B2F9D110BD2DE91C
:10213000FF5F074691461D460E9E4FF0000A0024A1
:1021400033E0281B401EC1B20A20FFF7E5FFB9FBB0
:10215000F0F00A21B0FBF1F201FB1208BAF1000F16
:1021600013D1681EA04210DDB8F1000F0BD1B346A9
:1021700006EBDB71491001FB0471C8B22022019902
:10218000FFF795FF0FE04FF0010AB34606EBDB7156
:10219000491001FB0471C8B208F13001CAB20199BB
:1021A000FFF785FF00BF601CC4B2AC42C9DBBDE8CD
:1021B000FF9F2DE9F04104460F46154600260EE02C
:1021C000AA5D39462046FFF772FF04F10800C4B249
:1021D000782C02DD0024B81CC7B2701CC6B2A85D02
:1021E0000028EDD1BDE8F0812DE9F04180460E4692
:1021F0001546002731464046FFF706FF00240AE057
:102200006A4A02EB8511085D0121FFF7C7FE781CC1
:10221000C7B2601CC4B2102CF2DB701CC1B24046C5
:10222000FFF7F2FE00240CE06900491C5F4A02EB54
:102230004111085D0121FFF7B1FE781CC7B2601C97
:10224000C4B2102CF0DBBDE8F0812DE9F05F06464A
:102250000F4690461C46DDF828A04FF0000BE11712
:1022600004EB5171C910A4EBC10131B92046E1174B
:1022700004EB5171C1F3C70506E02046E11704EBFA
:102280005171C910491CCDB23D4615E02946304672
:10229000FFF7BAFEB1460BE059460BF1010B1AF8F5
:1022A00001000121FFF77AFE09F1010000F0FF09AA
:1022B000C145F1DB681CC5B2A542E7DBBDE8F09F74
:1022C00008B501210420FEF735FCB020ADF8000070
:1022D00010208DF8030003208DF802006946314874
:1022E000FEF76CF9B0212F48FEF715FA01210820FE
:1022F000FEF720FC40F20310ADF8000010208DF82E
:10230000030003208DF8020069462548FEF756F9C0
:1023100040F203112248FEF7FEF901212048FEF7A2
:10232000FAF96420FFF707FE01211D48FEF7F5F9D1
:10233000C820FFF700FE01211948FEF7ECF9002143
:10234000AE20FFF72BFE00210846FFF727FE0021F5
:102350001020FFF723FE00214020FFF71FFE002181
:102360008120FFF71BFE0021CF20FFF717FE002181
:10237000A120FFF713FE0021C820FFF70FFE002168
:10238000A620FFF70BFE0021A820FFF707FE002183
:102390003F20FFF703FE0021D320FFF7FFFD07E0FA
:1023A000000C014000080140102700083008002000
:1023B00000210846FFF7F2FD0021D520FFF7EEFDD2
:1023C00000218020FFF7EAFD0021D920FFF7E6FD7C
:1023D0000021F120FFF7E2FD0021DA20FFF7DEFD0A
:1023E00000211220FFF7DAFD0021DB20FFF7D6FDE8
:1023F00000214020FFF7D2FD00212020FFF7CEFD75
:1024000000210220FFF7CAFD00218D20FFF7C6FD45
:1024100000211420FFF7C2FD0021A420FFF7BEFD1C
:102420000021A620FFF7BAFD0021AF20FFF7B6FD7F
:102430000021AF20FFF7B2FDFFF719FE002108468B
:10244000FFF7E2FD08BD0000064C074D06E0E0681E
:1024500040F0010394E8070098471034AC42F6D3EB
:10246000FDF748FE002D0008202D000870B58D18DE
:1024700010F8014B14F0030201D110F8012B2311C5
:1024800006D110F8013B03E010F8016B01F8016B75
:10249000521EF9D1ABB110F8012B04F00C048A1ACA
:1024A0000C2C03D0A2EB84129B1C08E010F8014B0B
:1024B000A2EB0422F8E712F8014B01F8014B5B1E76
:1024C000F9D5A942D4D3002070BD02E008C8121F7C
:1024D00008C1002AFAD170477047002001E001C10D
:1024E000121F002AFBD1704700000000000000000E
:1024F000002F000000000700070000147F147F1465
:1025000000242A7F2A1200626408132300364955EA
:10251000225000000503000000001C2241000000C2
:1025200041221C000014083E08140008083E080858
:10253000000000A0600000080808080800006060B3
:102540000000002010080402003E5149453E0000F2
:10255000427F4000004261514946002141454B31D4
:10256000001814127F10002745454539003C4A49A0
:102570004930000171090503003649494936000612
:102580004949291E0000363600000000563600007A
:1025900000081422410000141414141400004122F5
:1025A000140800020151090600324959513E007CCD
:1025B0001211127C007F49494936003E41414122B7
:1025C000007F4141221C007F49494941007F0909A0
:1025D0000901003E4149497A007F0808087F000050
:1025E000417F4100002040413F01007F081422410B
:1025F000007F40404040007F020C027F007F0408C3
:10260000107F003E4141413E007F09090906003E1E
:102610004151215E007F0919294600464949493147
:102620000001017F0101003F4040403F001F20406A
:10263000201F003F4038403F006314081463000728
:102640000870080700615149454300007F4141007F
:1026500000552A552A55000041417F00000402011F
:1026600002040040404040400000010204000020FD
:1026700054545478007F484444380038444444203B
:1026800000384444487F00385454541800087E09E8
:1026900001020018A4A4A47C007F080404780000B0
:1026A000447D4000004080847D00007F102844006D
:1026B0000000417F4000007C04180478007C08047E
:1026C000047800384444443800FC242424180018BA
:1026D000242418FC007C08040408004854545420A6
:1026E00000043F444020003C4040207C001C20402F
:1026F000201C003C4030403C004428102844001C72
:10270000A0A0A07C004464544C4414141414141469
:1027100000000000000000000000000000000000B9
:10272000000000F80000000000000033300000004E
:1027300000100C06100C0600000000000000000055
:1027400040C07840C0784000043F04043F040400C7
:10275000007088FC08300000001820FF211E0000D7
:10276000F008F000E018000000211C031E211E00EC
:1027700000F00888700000001E2123241927211072
:1027800010160E0000000000000000000000000015
:10279000000000E0180402000000000718204000BC
:1027A00000020418E00000000040201807000000AC
:1027B000404080F0804040000202010F0102020010
:1027C000000000F0000000000101011F01010100F4
:1027D000000000000000000080B070000000000059
:1027E00000000000000000000001010101010101E2
:1027F0000000000000000000003030000000000079
:10280000000000008060180400601806010000004D
:1028100000E010080810E000000F102020100F004A
:10282000001010F8000000000020203F20200000D1
:102830000070080808887000003028242221300029
:1028400000300888884830000018202020110E0031
:102850000000C02010F8000000070424243F2400DA
:1028600000F80888880808000019212020110E00AF
:1028700000E0108888180000000F112020110E00C1
:1028800000380808C83808000000003F00000000B9
:102890000070880808887000001C222121221C007A
:1028A00000E010080810E0000000312222110F00A3
:1028B000000000C0C0000000000000303000000038
:1028C00000000080000000000000806000000000A8
:1028D00000008040201008000001020408102000C1
:1028E000404040404040400004040404040404000C
:1028F00000081020408000000020100804020100A1
:10290000007048080808F0000000003036010000A0
:10291000C030C828E810E0000718272423140B0053
:102920000000C038E0000000203C230202273820CD
:1029300008F8888888700000203F202020110E00B1
:10294000C0300808080838000718202020100800A8
:1029500008F808080810E000203F202020100F0091
:1029600008F88888E8081000203F2020232018005D
:1029700008F88888E8081000203F200003000000C5
:10298000C03008080838000007182020221E020066
:1029900008F808000008F808203F210101213F2025
:1029A000000808F8080800000020203F2020000050
:1029B00000000808F8080800C08080807F00000040
:1029C00008F888C028180800203F20012638200079
:1029D00008F8080000000000203F202020203000E0
:1029E00008F8F800F8F80800203F003F003F2000FA
:1029F00008F830C00008F808203F200007183F0002
:102A0000E01008080810E0000F10202020100F0030
:102A100008F808080808F000203F21010101000023
:102A2000E01008080810E0000F18242438504F0068
:102A300008F8888888887000203F2000030C302028
:102A400000708808080838000038202121221C0066
:102A5000180808F8080818000000203F20000000AF
:102A600008F808000008F808001F202020201F0098
:102A70000878880000C83808000007380E010000F8
:102A8000F80800F80008F800033C0700073C0300C2
:102A9000081868808068180820302C03032C302028
:102AA0000838C800C83808000000203F2000000097
:102AB00010080808C83808002038262120201800EF
:102AC000000000FE020202000000007F40404000C3
:102AD000000C30C000000000000000010638C000FB
:102AE00000020202FE000000004040407F000000A3
:102AF00000000402020204000000000000000000C8
:102B000000000000000000008080808080808080C5
:102B100000020204000000000000000000000000AD
:102B200000008080808000000019242222223F20A3
:102B300008F8008080000000003F112020110E00E6
:102B40000000008080800000000E11202020110075
:102B5000000000808088F800000E112020103F2027
:102B60000000808080800000001F222222221300AB
:102B7000008080F0888888180020203F20200000F6
:102B80000000808080808000006B949494936000AB
:102B900008F8008080800000203F210000203F20B6
:102BA00000809898000000000020203F20200000B6
:102BB000000000809898000000C08080807F0000A6
:102BC00008F8000080808000203F24022D30200083
:102BD000000808F8000000000020203F202000002E
:102BE0008080808080808000203F20003F20003F48
:102BF0008080008080800000203F210000203F2056
:102C00000000808080800000001F202020201F0006
:102C1000808000808000000080FFA12020110E0035
:102C20000000008080808000000E112020A0FF8026
:102C3000808080008080800020203F2120000100D3
:102C40000000808080808000003324242424190028
:102C5000008080E0808000000000001F2020000035
:102C60008080000000808000001F202020103F2076
:102C7000808080000080808000010E300806010006
:102C800080800080008080800F300C030C300F00AB
:102C900000808000808080000020312E0E312000D6
:102CA000808080000080808080818E701806010006
:102CB00000808080808080000021302C2221300024
:102CC00000000000807C020200000000003F404045
:102CD00000000000FF00000000000000FF000000F6
:102CE0000002027C800000000040403F0000000025
:102CF00000060101020204040000000000000000C0
:102D0000202D000800000020F00900006C240008BD
:102D1000E02F0008F009002000040000DA24000879
:102D2000500600A24A0400016009010203040607DC
:102D300008090C611050150204060800030509116A
:102D4000FF118905C300E000F000F83300083A44A1
:102D500028FF11AA440001500B830138448292924B
:102D60007401831120087C44FF017D7D7D044105B1
:102D700050047D01FFA1910271B5023B017E8141AA
:102D80009149F20101011BC230083F3F0303F313D5
:102D90001101100601F1116181402005816111F1DD
:102DA0004733414107200401C12120A321C114312F
:102DB000193137040736D33303033F3F426006E03F
:102DC000E000007FA8167FC840040618060A100815
:102DD000000040407F4040A410041F204001A32079
:102DE0001F143300600E6004300C03460534C2101B
:102DF000040707060170090404048444444484075A
:102E000080050484C4041501120A71112140073D94
:102E10000707C9200F0000101814121100000F102E
:102E200010100F0F131F1015600D081012120D0057
:102E3000001800000D120A51295130015E01528024
:102E400001013B4514047F030CA915DE1C05385411
:102E500054582503080A2004047800003C40407CB4
:102E60002000092CFFAAAAAA280800FF681006263D
:102E700049494932101005020408100F0D6F000473
:102E80009D01040D9D0004156343F808012405000D
:102E9000F81860E82404806018235720202923E0D4
:102EA0001021A310E01449B4313908043C88681893
:102EB000630D15FF037DEA039DFF0371144DFF03AE
:102EC0001D06043D2E040942E91C0640202020C0B6
:102ED0004A04110721EA3E40520452600E811871E3
:102EE0002951070D4769031C060C0A0A090C000446
:102EF000156B2D00042004080F081510050809099A
:102F00000E071D180430050909090F0A5129510738
:102F10000DFF00040D22000479EB1EF05E05231066
:102F2000FF050E13F085052E0FE1052EFFFA050AA9
:102F3000120F23100840405F55555575045B5F40E4
:102F400088D94424060F09498979AB0211201F2032
:102F50000800FE02424ACA4A030004124202FEED81
:102F60000C0C1340504C4340404F50505C40F20416
:102F700013F8880122FF050E13F8CE072E1F9103C8
:102F8000227F2003109F80E2338082010C0716E22B
:102F9000A2928A8682D3050C041640807F2C080CEE
:102FA0000B142424A4FEA3220022CC0090051F08A9
:102FB00006ED083E0125070C0510FF020202E3069C
:102FC000257C539008C3FE088C07080F1004448228
:102FD0007F01808040432C10284681730000000050
:04000005080000ED02
:00000001FF
